:020000040000fa
:080000000001040000000000f3
:020000040000fa
:0400080048050000a7
:020000040000fa
:04000c0048050000a3
:020000040000fa
:04001000480500009f
:020000040000fa
:04001400480500009b
:020000040000fa
:040018004805000097
:020000040000fa
:04001c004805000093
:020000040000fa
:04002000480500008f
:020000040000fa
:04002400480500008b
:020000040000fa
:040028004805000087
:020000040000fa
:04002c004805000083
:020000040000fa
:04003000480500007f
:020000040000fa
:040034002c0200009a
:020000040000fa
:040038004805000077
:020000040000fa
:04003c004805000073
:020000040000fa
:04004000480500006f
:020000040000fa
:04004400ac0200000a
:020000040000fa
:040048004805000067
:020000040000fa
:04004c004805000063
:020000040000fa
:04005000480500005f
:020000040000fa
:04005400480500005b
:020000040000fa
:040058004805000057
:020000040000fa
:04005c00900400000c
:020000040000fa
:04006000480500004f
:020000040000fa
:04006400480500004b
:020000040000fa
:040068004805000047
:020000040000fa
:04006c004805000043
:020000040000fa
:04007000480500003f
:020000040000fa
:04007400780300000d
:020000040000fa
:040078004805000037
:020000040000fa
:04007c004805000033
:020000040000fa
:04008000480500002f
:020000040000fa
:04008400480500002b
:020000040000fa
:040088004805000027
:020000040000fa
:04008c004805000023
:020000040000fa
:04009000480500001f
:020000040000fa
:04009400480500001b
:020000040000fa
:040098004805000017
:020000040000fa
:04009c004805000013
:020000040000fa
:0400a00064020000f6
:020000040000fa
:0400a400a4020000b2
:020000040000fa
:0400a8004805000007
:020000040000fa
:0400ac004805000003
:020000040000fa
:0400b00048050000ff
:020000040000fa
:0400b40048050000fb
:020000040000fa
:0400b80048050000f7
:020000040000fa
:0400bc0048050000f3
:020000040000fa
:0400c00048050000ef
:020000040000fa
:0400c40048050000eb
:020000040000fa
:0400c80048050000e7
:020000040000fa
:0400cc0048050000e3
:020000040000fa
:0400d00048050000df
:020000040000fa
:0400d40048050000db
:020000040000fa
:0400d80048050000d7
:020000040000fa
:0400dc0048050000d3
:020000040000fa
:0400e00048050000cf
:020000040000fa
:0400e40048050000cb
:020000040000fa
:0400e80048050000c7
:020000040000fa
:0400ec0048050000c3
:020000040000fa
:0400f00048050000bf
:020000040000fa
:0400f40048050000bb
:020000040000fa
:0400f80048050000b7
:020000040000fa
:0400fc0048050000b3
:020000040000fa
:0401000048050000ae
:020000040000fa
:0401040048050000aa
:020000040000fa
:0401080048050000a6
:020000040000fa
:04010c0048050000a2
:020000040000fa
:04011000480500009e
:020000040000fa
:04011400480500009a
:020000040000fa
:040118004805000096
:020000040000fa
:04011c004805000092
:020000040000fa
:04012000480500008e
:020000040000fa
:04012400480500008a
:020000040000fa
:040128004805000086
:020000040000fa
:04012c004805000082
:020000040000fa
:04013000480500007e
:020000040000fa
:04013400480500007a
:020000040000fa
:040138004805000076
:020000040000fa
:04013c004805000072
:020000040000fa
:04014000480500006e
:020000040000fa
:04014400480500006a
:020000040000fa
:040148004805000066
:020000040000fa
:04014c004805000062
:020000040000fa
:04015000480500005e
:020000040000fa
:04015400480500005a
:020000040000fa
:040158004805000056
:020000040000fa
:04015c004805000052
:020000040000fa
:04016000480500004e
:020000040000fa
:04016400480500004a
:020000040000fa
:040168004805000046
:020000040000fa
:04016c004805000042
:020000040000fa
:04017000480500003e
:020000040000fa
:04017400480500003a
:020000040000fa
:040178004805000036
:020000040000fa
:04017c004805000032
:020000040000fa
:04018000480500002e
:020000040000fa
:04018400480500002a
:020000040000fa
:040188004805000026
:020000040000fa
:04018c004805000022
:020000040000fa
:04019000480500001e
:020000040000fa
:04019400480500001a
:020000040000fa
:040198004805000016
:020000040000fa
:04019c004805000012
:020000040000fa
:0401a000480500000e
:020000040000fa
:0401a400480500000a
:020000040000fa
:0401a8004805000006
:020000040000fa
:0401ac004805000002
:020000040000fa
:0401b00048050000fe
:020000040000fa
:0401b40048050000fa
:020000040000fa
:0401b80048050000f6
:020000040000fa
:0401bc0048050000f2
:020000040000fa
:0401c00048050000ee
:020000040000fa
:0401c40048050000ea
:020000040000fa
:0401c80048050000e6
:020000040000fa
:0401cc0048050000e2
:020000040000fa
:0401d00048050000de
:020000040000fa
:0401d40048050000da
:020000040000fa
:0401d80048050000d6
:020000040000fa
:0401dc0048050000d2
:020000040000fa
:0401e00048050000ce
:020000040000fa
:0401e40048050000ca
:020000040000fa
:0401e80048050000c6
:020000040000fa
:0401ec0048050000c2
:020000040000fa
:0401f00048050000be
:020000040000fa
:0401f40048050000ba
:020000040000fa
:0401f80048050000b6
:020000040000fa
:0401fc0048050000b2
:020000040000fa
:10020000afd521000e7f24000e0188000000000001
:10021000000020000000e000020032000001200089
:1002200020028800140007001b0207000000e00005
:1002300003003a0020c2260001002000020037001f
:100240000000200001002000810f7000010032003a
:1002500014000700000020000000e000020032004f
:1002600000000200000000007246020000000000d2
:100270000040da000000fe004440a900c024200035
:100280000000e00003003200002020009001880000
:100290004440a800000006008a1f78008b1f7800e9
:1002a00000000600a1028800800478000000eb0036
:1002b0001f003700e284440054a0b4009905ba003e
:1002c000e284440054a0b4009906ba00e2844400d9
:1002d00054a0b4000006eb00476fde00fd07b2003b
:1002e000ae018800636ce10003003a00eaff0700fa
:1002f0000000eb000e003700606ce10008003a00df
:10030000004deb000a05e800020039003420ec0043
:100310000af0a0008b05e900f9ff3e000400370059
:100320006168e100010032000086eb000b0007006d
:1003300019c7ba001905ba000e04e00003003a001c
:100340000a00e000dbff3a0000000600fe07b200f2
:10035000ae0288008a047800f5ff37000cd0a300b5
:10036000e20f4d001c00390089027800354dba00bb
:100370000a05e800020039003420ec000af0a00071
:100380008b05e9000f003200254dba000a05e80090
:10039000020039003420ec000af0a0008b05e900cf
:1003a000080032000c00e0000600320015cdba0053
:1003b0000a05e800020039003420ec000af0a00031
:1003c0008b05e9008984e80054a0b4000b00e0002c
:1003d000e2ff3a00000006009902ba00055d7800cd
:1003e0008b05e900f7ff3200c82ade00055d7800c2
:1003f0008b05e900f3ff32000c00e000f1ff320052
:1004000019ddba00eeff3700602e04000000000086
:10041000c85d040000000000243b04000000000050
:100420007841040000000000de3f040000000000ee
:1004300024410400000000007a3a0400000000009b
:10044000b83e040000000000e43e0400000000008c
:100450001c3f0400000000003600f800809fbe0032
:10046000829fbe00849fbe00869fbe003200f800bf
:100470003400f80010002000a001880000202000b7
:10048000900188000000fa008860a9001513070099
:100490000000e000030032002c6d020000000000ac
:1004a000000000000080fa003400f9003200f9007a
:1004b0004f03be004f02be004f01be004f00be0002
:1004c0003600f900004006003600f800809fbe00ac
:1004d000829fbe00849fbe00869fbe000400fa007b
:1004e0000000eb00000f7800a01d800000407800a5
:1004f00020479800c04080008e80e8008001eb001b
:100500000e017800db2307008bc0a90010c0b300e8
:1005100075e8b7001e0078000000e000030032001c
:100520002c6d020000000000000000000080fa00b6
:100530004f03be004f02be004f01be004f00be0081
:100540003600f900004006000000fa008be0a90028
:100550000080fa00004006003600f800809fbe00d0
:10056000829fbe00849fbe00869fbe000400fa00ea
:100570000000eb00100798009621ef0088e0a9002a
:1005800060408000e10f50000b003200e10f50008e
:1005900005003900e20f500019003200e30f50004f
:1005a00012003200320037001068ef000000eb004c
:1005b000000f78002e00370010c0b30010e8b7001d
:1005c000104080008e80e800010178008000eb0080
:1005d0008925070011438000010f7800104080003a
:1005e0008e80e800e62307002100370011438000d9
:1005f000010f78000ec8bf0010e8b7001c003700dc
:1006000010c0b30010e8b7005fc8bf000004e000ee
:1006100007003200c042800063005000c0428800e2
:10062000c0428000e30f500001003e005f68ef0011
:100630005fc8bf000004e0000a003a00c04280002a
:1006400063004000c0428800e0428000e3005000a8
:10065000c0428000808f500002003e0010c0b300f6
:100660005fe8b700c1428000010f78000000000081
:1006700010c8bf000004e0000f0032005ec8bf00d9
:100680000004e000060032007ae6a900e0428000a3
:100690001e005000e00c88005e68ef000700370085
:1006a0007ae6a8009e007800e10c880010c0b30034
:1006b0005ee8b700010037007ae6a9001e0090004e
:1006c0000000e000030032002c6d0200000000007a
:1006d000000000000080fa004f03be004f02be0081
:1006e0004f01be004f00be003600f900004006007a
:1006f0003600f800809fbe00829fbe00849fbe002f
:10070000869fbe000200fa000000eb00000f780098
:10071000d03380004f00de00004078000004a200cb
:10072000614060000080fb004f00dd00d13380009d
:1007300001f0a10001007000d033880080338000f8
:10074000700060000000e0001f0032007086a90009
:10075000203380004400de0061406000804078006b
:1007600000d021000148780000d02100904078009e
:1007700020d521001040780080cf500012003200b8
:1007800050d121008040eb000148780020d12100a9
:10079000104078000004e0000b003a002a12070025
:1007a00080007800d0e780000002eb008e01780026
:1007b0000101780061002000472c070020d12100b2
:1007c00011c0b300014878002134800000102000df
:1007d000008060000000e0001f0032008506a900d4
:1007e000c03380004800de00614060008040780037
:1007f00010d021000148780010d0210090407800ee
:1008000030d521001040780080cf50001200320017
:1008100060d121008040eb000148780030d12100f8
:10082000104078000004e0000b003a0006120700b8
:1008300080007800e0e780000002eb008e01780085
:100840000101780061002000232c070030d1210035
:1008500011c0b3000148780021348000002020003e
:10086000008060000000e0001f0032008526a90023
:10087000c03380004900de006140600080407800a5
:1008800020d021000148780020d02100904078003d
:1008900040d521001040780080cf50001200320077
:1008a00070d121008040eb000148780040d1210048
:1008b000104078000004e0000b003a00e21107004d
:1008c00080007800f0e780000002eb008e017800e5
:1008d0000101780061002000ff2b070040d12100ba
:1008e00011c0b300014878008a60a9001e0078009a
:1008f0000000e000030032002c6d02000000000048
:10090000000000000080fa004f03be004f02be004e
:100910004f01be004f00be003600f9000040060047
:100920003600f800809fbe00829fbe00849fbe00fc
:10093000869fbe000a00fa000000eb004007980006
:100940006000b8002007980031079800d03380007d
:100950004f00de00004078000004a200614060000b
:100960000080fb004f00dd00d133800001f0a100ca
:1009700001007000d033880090388000404188002a
:1009800041418000e03f2000808f5000020036008f
:10099000e03f200040418800404180000000e0002e
:1009a00002003a00100020004041880040418000d1
:1009b0006101b800e04280008000eb00009ab900bd
:1009c00004027800028bb90086027800050242001a
:1009d0000010b8000102420084007800f23f2000bd
:1009e0000300200062000700008fbe00e04280008c
:1009f0008000eb00be0f5000ae8f580003003100a6
:100a0000e04280008000eb00008fbe001e01be00af
:100a10001000200001002000800f5100818f59003c
:100a200003003e001000200001002000008fbe00e7
:100a300010408000e8004700010178008000eb00d2
:100a40006d2407001e0078001043880010408000cd
:100a5000e8004700ca22070089a0a9004e009000c4
:100a60000000e000030032002c6d020000000000d6
:100a7000000000000080fa004f03be004f02be00dd
:100a80004f01be004f00be003600f90000400600d6
:100a90000040da000000fe00000005000001be007a
:100aa0001e0007000470a70003f0a10003f8a300d4
:100ab00013003a006509b10010003200090035004a
:100ac0006928e1000200350001002800000005004f
:100ad00000004000818048008502e900fcff3a00e8
:100ae00000000600f88f4200050035008100d100ab
:100af0000080d3008502e800fcff3a0000000600f9
:100b00008000eb00000005004f89de0082017800c4
:100b1000a60137006011b800b4013700c70ade0033
:100b2000f107b200f50fb20008003200e1cf420039
:100b3000020032000170a00024000500810f700047
:100b4000010032000408050044000500810f700018
:100b500002003a00140005008502e9000000400090
:100b600081c04800fcff3b000170a000240005008c
:100b70006022b800060220000000d0008180d20070
:100b80000482d2008582d2000000a000020252003e
:100b900083825a00030031000202420083824a002d
:100ba0000000a1000603e900f3ff3a000000060080
:100bb000889fbe008a9fbe008c9fbe001b00200045
:100bc0000202be00058668000600280006066600d0
:100bd0004709de00f20fb200820032000243e80053
:100be00080003200c729de00f30fb2007d00320022
:100bf0000343e8007b003200f107b2000170a0005f
:100c0000f507b2000570a000c708dd004903de004b
:100c1000868070004700dd00c72add004923de0022
:100c2000868272004722dd00030551000403500054
:100c30008583580003003100000040008180480097
:100c40000a05e9008c1f78008a9fbe00040050004e
:100c5000858058000402420085824a00000040005e
:100c6000818048000005eb000004be006033b8003e
:100c70000406be000d48e1005600310011000900d5
:100c80004dccd8000c01b8000d02b80084814100a1
:100c900060824a008283530003045c0084845c0009
:100ca00060055d000a00e00025003a00800578003c
:100cb0000d40e1004900310088007800070078000d
:100cc000110009004d88d8000c01b8000d02b800d1
:100cd0008481410060824a006003110083835b00cd
:100ce00004045c00e0845c000900e00021003a009c
:100cf0004f01be000300e0002b003200e301600062
:100d0000070673008c8171000100320064007000de
:100d10004200de004e5edd000c007000c258de00b6
:100d200001e0a0009b000700cf01780081807100e6
:100d30004f06be004f05be004f04be000000060077
:100d40008c8343000d044c00e0844c0060054d0092
:100d50000000e9000a00e000d4ff32008c83430069
:100d60000d044c00e0844c0060054d000000e900db
:100d7000ceff37000c0343008d834b0060044c0012
:100d8000e0844c000000e9000900e000d8ff3200d8
:100d90000c0343008d834b0060044c00e0844c0046
:100da0000000e900d2ff37004200de004e5edd00a9
:100db0000c007000c258de0001e0a000cf017800f6
:100dc0000300e000daff320060001000e08018004d
:100dd000d7ff3700f0ff2f00aaff3700f0ff2f00ea
:100de000b9ff37000404be005000070087067800f2
:100df0000004fd008104fd004c000700078366002d
:100e00000678a300030032000960a7000800be00b6
:100e10002c0037000d78a300020032000800be004d
:100e2000280037000778a30026003a0001f0a1004f
:100e300009f0a1000668a30003003200f1ff2700bb
:100e4000f0ff2f00baff37000d68a3000300320047
:100e50000800be008c807000b5ff37000768a30053
:100e600007003a000648a30003003200f1ff270004
:100e7000f0ff2f00aeff37000d48a3000300320043
:100e80006000b8008c807000a9ff37000748a300fd
:100e90000400320001f82700000020008c80700060
:100ea000a3ff37008e0007000004fd008104fd0051
:100eb000020578008a0007000802be008a01780057
:100ec00059ff37000160a00012022000b2438800e1
:100ed00097ff37000100e000120032000500e0003b
:100ee00010003200889fbe008a9fbe008c9fbe000b
:100ef0000006eb0001f8a3000300320060001000c0
:100f0000e08018000cf0a00005f8a30003003200f8
:100f100060021200e0821a000cf0a2008005eb00d3
:100f200041ff37006000b8000200050027002000e4
:100f300001f0a70017002000470bde00f60fb200fb
:100f4000040032000643e8000a0032004702b30002
:100f50000000060001037800f607b20006037000e7
:100f600002003a000703b300000006008702b30046
:100f70000000060001037800f607b20006037000c7
:100f8000020032000770a000000006000760a00009
:100f90000000060081017000270032008002eb0093
:100fa00001f8a3000300320060001000e080180088
:100fb00015002000f4072000020242002000340047
:100fc000f70320008703600006042000000363008d
:100fd00002082000000161004700de00c909dd00b1
:100fe00000807100c708de000600e0000800320043
:100ff00087037100060032001000b0000180b000cd
:101000000188a30002003200c108de000402e800eb
:10101000f107b200f30f20000320e10003003d00c0
:101020004722dd00810072002900370001f8270007
:101030000000eb00260037006000b800000006004a
:10104000680212007f20e100020034006000b80056
:101050001f0037006011b8007020e1000400350067
:1010600080017800010078008000eb0070025200df
:101070000400e00009003400f00312000719dd004d
:101080008419de000703dd00868171000400de00a4
:10109000070bdd00060070008408de00f7ff270064
:1010a0008383630087037100060028000303630045
:1010b000070032000700e00003003a006101600011
:1010c00002817300020032001000b0000180b00005
:1010d0000500a6000000060001f0a00000000600c8
:1010e0004f0ade004709de00f107b200f20fb2003e
:1010f0000b003200f207b1000170a000c708dd004c
:10110000c901de00838070004700dd000400a600f6
:101110000000060060001000e080180000000600db
:10112000810f700001003a00000006008182cf00ac
:101130000500e00010003e008082cf00ee824200f9
:101140007028e1000400390007003e0080007800ac
:101150000000eb000e003700708312008600de00f6
:101160000500dd000a003700708352008600dd00b4
:101170000000eb0006003700e28252008508dd0027
:10118000708312000603de00868070000500dd001b
:101190007507b0000501ea000400a6000000060083
:1011a00060001000e080180000000600881f780032
:1011b000030478000300e00007003d006000100019
:1011c000e080180060011900e081190002003b0076
:1011d00001f02d00030037000400070008f0a7000d
:1011e00001f0a0004f04780000000600889fbe00b8
:1011f0008a9fbe00008270000402710004827100a8
:10120000260032000004be000200be006011b800db
:101210006b092000950220000182cf000a003900ee
:101220000541b1000082cf00070039000541b1003f
:101230000982cf00040039000541b1000882cf00c7
:10124000010039000541b100054252001200320090
:101250000a003b0082817100610164008100d100bd
:101260000080d3008984d3000884d3008b05e80074
:101270000442e800f7ff3a00070037000804440082
:1012800089844c0000004800818048008b05e900fb
:101290000442e900f9ff3a00030007004f05be00d1
:1012a0004f04be0000000600810020006180550050
:1012b0000b003d000b00200061fe2f000100e1004b
:1012c0001d00340082817100610164008904d10035
:1012d0000884d3000000e800faff3a007100200003
:1012e0006100640003007000020060000900320029
:1012f00061044400e0844c000988a5000500320028
:101300008b05e8006808e10002003a008904d1007a
:101310000884d300f20f20000258e10005003d00d0
:10132000c75ddd00f907b20089807500080078000c
:10133000000006000bf827008b0078000000050075
:101340006f04b000889fbe008a9fbe008c9fbe00c5
:101350008e1f78000006be000204be000200be0020
:101360001e0707000203be000002be00d09f9f00c0
:10137000e19f9f00f29f9f0083a79f00b6af9f0051
:10138000c7af9f000005be00cfaa970005f0a100df
:10139000060278000000720081807200e00f5000a9
:1013a000e08f5800e40432000c00be0094b79f00a8
:1013b000a5b79f000907070092af9f00a3af9f004a
:1013c0000003be00b0a79f00c1a79f00000020003f
:1013d00001ff23001fb29700afb29700800f5100aa
:1013e000818f590003003a00e00f5300e08f5b004b
:1013f000d1043200afab970007f0a1001fab9700fc
:10140000d6a79f00e7a79f000000200001ff27004c
:10141000800f5300818f5b0011003c0005003a00f3
:101420003fa19700cfa19700e00f5100e08f590036
:101430000b003a00800f5200818f5a0008003c00d8
:101440000000200001ff2700800f5200818f5a000a
:1014500007003a00e00f5500e08f5d000400320005
:101460000c01be000800be0039070700b0043700b9
:101470006000b800f0a79f0081af9f001fa99700f0
:10148000afa99700e00f5100e08f590059003d00cf
:101490002000200001002000f0a79f0081af9f00e6
:1014a000f0ff2f00f1332400800f5200818f5a008b
:1014b00050003c006011b800f2a79f0083af9f006e
:1014c000f0ff2f00f1fe2300800f5200818f5a00a1
:1014d0004800340044a8de00cfa8de00f03fb10091
:1014e0000180b100f40f5000e08f5800220034005a
:1014f0004203200000015100f2a79f000a01be0034
:101500007fa797000e07e900030033008301d10095
:101510000281d300fbff37000200be007fa79700c7
:101520000e07e900030033000000400081804800fe
:10153000fbff370090a79f00a1a79f006000b800a5
:10154000f0a79f0081af9f001fa09700afa097005a
:101550008a0f50008b8f580026003a006000b800b8
:101560006100610062011000e0811800f2a79f0095
:1015700083af9f001f0037006011b800f2a79f00e3
:1015800083af9f00e00f5500e08f5d0064003a00dc
:10159000740010000401be00000578000a05e9008f
:1015a000030033008381d1000281d300fbff3700a9
:1015b0000205be00000778000e07e90003003300b3
:1015c0000a0545008b854d00fbff3700840f550051
:1015d000858f5d002b003a006000b800610061005b
:1015e00062011000e0811800f2a79f0083af9f0006
:1015f00024003700e00f5500e08f5d0048003a00fe
:101600000000200001ff2700800f5200818f5a0048
:101610001c003a000000200001012c0006004000e0
:10162000878048003fa29700cfa297000400700077
:1016300085807000e00f5000e08f58003e043200bb
:10164000f0ff2f00f1fe2300800f5300818f5b001d
:10165000060034003fab9700cfab9700e00f53007c
:10166000e08f5b003c043d00360437003fad97003f
:10167000cfad9700e00f5500e08f5d0031043d00d5
:101680006d0037000000200001ff2300800f520092
:10169000818f5a0009003a003fa89700cfa8970011
:1016a000e00f5000e08f580028043d000c01be0000
:1016b0000000200001f82300710037000000200026
:1016c000010024003fa99700cfa99700800f510087
:1016d000818f590003003a000c01be000c00be00cf
:1016e000120437000000200001fe23003fad9700e8
:1016f000cfad9700800f5500818f5d0008003a0044
:101700001fa89700afa89700e00f5000e08f580087
:10171000030035000c00be0040040700040437003d
:101720000c00be0094b79f00a5b79f00f6af9f00c6
:1017300087b79f008c0507000005be001fb2970009
:10174000afb297007fab97008fb397003fa1970090
:10175000cfa19700e00f5100e08f590038003a0008
:101760000000200001ff2700800f5300818f5b00e5
:1017700008003200e00f5300e08f5b0005003200ec
:101780000000200001ff2300800f5300818f5b00c9
:101790002b003a003faa9700cfaa9700e00f520013
:1017a000e08f5a000a003d000a01be000000200040
:1017b00001f82300f6af9f0087b79f00fcfc0700ed
:1017c0000001be007fab97008fb397000100370088
:1017d0000a01be001fad9700afad9700e00f5500a6
:1017e000e08f5d00db033d000000200001012c00c4
:1017f00006034000878348007fa097008fa89700ca
:101800000603700087837000e00f5300e08f5b00d9
:1018100003003a0010022000c0ea880015003700db
:101820007fa297008faa9700e10f5200e08f5a0025
:10183000c8033a000204be0009f0a200c603370044
:101840001fa89700afa89700e00f5000e08f580046
:1018500015003d007fa197008fa99700e00f510070
:10186000e08f590008003a0010022000c0ea88000a
:101870000c01be000200be002c0607000001be00e5
:10188000cbfc0700aa0337007fa097008fa8970022
:10189000e10f5000e08f58000800320002002000e5
:1018a00003f82300070037000000200001f82300a0
:1018b000f0a79f0081af9f000400370002002000c6
:1018c00003f82b00f2a79f0083af9f0000002000c9
:1018d000011e2400800f5200818f5a0076003400d0
:1018e00000002000013f2400800f5200818f5a0029
:1018f00015003400f0ff2f00f1fe2300800f53008d
:10190000818f5b0007003c006044b8003faa97004d
:10191000cfaa9700e00f5200e08f5a008e033d00df
:10192000060037006044b8003fab9700cfab97008c
:10193000e00f5300e08f5b008703340008002000b5
:1019400009f8270084033700e0ff2f00f1fe230091
:10195000800f5300818f5b0006003c003fad970075
:10196000cfad9700e00f5500e08f5d007f023d0096
:10197000590237000000200001ff2300800f5300b0
:10198000818f5b00060034003fa89700cfa8970026
:10199000e00f5000e08f58004f023c007302370008
:1019a0000200200003f823000a00be00df05070044
:1019b0000005be00b2a32a0083fb2300c90607006e
:1019c000b0af9f00c1af9f0002062700532a23003b
:1019d0000a00be00c30607000002be000a01be00e6
:1019e0000a00be0094b79f00a5b79f00bd06070080
:1019f0000006be000200200003e823000a00be002b
:101a0000b80607000001be00b0aa2a00a1ea230020
:101a1000c60507000001be000a00be00b1060700af
:101a20000001be000000200001f02300bf050700f8
:101a30000001be000c00be00aa060700b2a32a00e7
:101a400083fb2300a70607000001be001fb297001a
:101a5000afb297000400be00b40507000006be0048
:101a60000001be003fa89700cfa89700b805070067
:101a70005a0507000002be000203be006000b80065
:101a8000f2ff2f00f3ff2f00000062008180620050
:101a90000201630083816300730507000005be0037
:101aa0003fa99700cfa99700a00507000001be003d
:101ab0000c00be00b40137006000b800f2ff2f0038
:101ac000f3002000820f5300838f5b000a003c006c
:101ad0000200200003a025000a00be0081060700c6
:101ae0000005be003d050700d2a79f00e3a79f00a9
:101af000b0fc2f00f1ff2f000001be00f23fb1004b
:101b00000380b100efa2970044a8de00050378002f
:101b1000cfb0de000202400083824800b4a79f00dd
:101b2000c5a79f0086027800ef8162005fa1970041
:101b30000000200001ff230000027100818271007b
:101b4000d4a79f00e5a79f006033b80096af9f0021
:101b5000a7af9f00e088290031002000800f5100ce
:101b6000818f590014003400100020000100200073
:101b700090af9f00a1af9f0090672b00b1002000a5
:101b8000800f5100818f59000b0034003fa1970056
:101b9000cfa1970061014100e0814900b2a79f00f9
:101ba000c3a79f00f0825200d4a79f00e5a79f0023
:101bb00096af9f00a7af9f005fa29700efa297008c
:101bc0004fabde00860378000403be006022b8003d
:101bd000b4af9f00c5af9f00d6af9f00e7af9f0097
:101be0000a00be00fd040700f4ff2f00f5ff2f00e0
:101bf0006033b80004026000858260000603610063
:101c0000878361003fa89700cfa897005fa997003e
:101c1000efa9970004007000858070000601710034
:101c200087817100f0979f00819f9f00929f9f0086
:101c3000a39f9f007f9097008f9897001f99970010
:101c4000af999700080507000006be009fa89700ff
:101c5000420fdd0060d221000e0040001001be00e6
:101c6000b2b79f00c3b79f000c00be002f0507004e
:101c700090a79f00a1a79f003fb19700cfb1970009
:101c80000c00be00320507000001be00000020006d
:101c900001f82300c6fb0700b09f9f00c19f9f0073
:101ca0000001be001fa09700afa097000d0607001f
:101cb000b0af9f00c1af9f00c80407000002be0084
:101cc0000203be00f4979f00859f9f00969f9f0090
:101cd000a79f9f006000b800f2ff2f00f3ff2f00c6
:101ce0000000620081806200020163008381630062
:101cf000d0b79f00e1b79f00f2b79f0083bf9f005e
:101d00005fb09700efb097007fb197008fb9970051
:101d1000d50407000005be001fa99700afa99700d2
:101d2000c210dd000000200060014000e881480092
:101d30005fa29700efa297008580d1000480d300b6
:101d400001d0a00002004000838048004f89de00df
:101d5000820178000001be006000b800c2040700e4
:101d60000002be000001be000a00be0094b79f0042
:101d7000a5b79f00db0507000001be001fa097006c
:101d8000afa09700e90407000003be003fb1970031
:101d9000cfb197001fb29700afb297000400be000a
:101da000f6af9f0087b79f00e00407000001be0068
:101db0000c00be00dd0407000001be000a00be00ea
:101dc000c80507000001be007fab97008fb39700e6
:101dd0000600be00d50407000001be003f98970032
:101de000cf989700bf05070090af9f00a1af9f005d
:101df0003fa99700cfa997000200be00b9050700d0
:101e00000006be000001be00b60507000002be00cd
:101e100022142f0033e523000c00be0094b79f006e
:101e2000a5b79f00af05070052252300c3e6230096
:101e3000c70407000001be000c00be00a905070092
:101e400052302a00b3e82300c10407000001be009d
:101e50000c00be00a3050700b2aa2a00a3ea2300d3
:101e6000bb0407000001be000c00be009d0507007a
:101e700072db2600b3ed2300b50407000001be00ad
:101e80000c00be0097050700a299290093f12300da
:101e9000af0407000001be001fb29700afb2970069
:101ea0000400be008f0507000006be003fa9970092
:101eb000cfa997000a00be00a50407000001be00dc
:101ec0001fa89700afa89700860507000001be0075
:101ed0000c00be009e040700d0a79f00e1a79f0052
:101ee0000a01be000a00be007e0507000006be0013
:101ef0000200200003042400950407005fa197005e
:101f0000efa1970092040700340407000002be000e
:101f10000203be006000b800f2ff2f00f3ff2f00a5
:101f2000000062008180620002016300838163001f
:101f3000f0979f00819f9f00929f9f00a39f9f000b
:101f40007f9097008f9897001f999700af999700ff
:101f5000450407000002be000001be000a00be00ea
:101f600094b79f00a5b79f005e05070090a79f004c
:101f7000a1a79f001fb29700afb297000401be0057
:101f80001fa89700afa89700560507000005be00e0
:101f900002002000030424001fb29700afb2970094
:101fa0000400be00610407000c01be005f040700ce
:101fb0000001be005fa09700efa097005b04070040
:101fc0003fa99700cfa99700460507000001be0072
:101fd0000a00be005e0407000006be000001be004d
:101fe0001fa09700afa0970059040700fb0307004c
:101ff0000002be000203be006000b800f2ff2f0026
:10200000f3ff2f0000006200818062000201630084
:1020100083816300b0af9f00c1af9f00d2af9f002c
:10202000e3af9f003fa89700cfa897005fa9970054
:10203000efa997000c0407000005be00f2842300fe
:1020400063f723002705070090af9f00a1af9f0013
:1020500012f02700131f2b000a00be002105070005
:102060000002be001fa19700afa197000a00be00aa
:1020700094b79f00a5b79f002c0407000001be0085
:102080000c00be0029040700f284230063f723003c
:10209000140507000001be001fb29700afb2970001
:1020a0000400be002a040700e2d221000e01410014
:1020b0001201be0026040700d0a79f00e1a79f00e1
:1020c0003fa09700cfa097008ffa07000006be0040
:1020d00060d321000e0740001e03be00b6af9f0074
:1020e000c7af9f005fa19700efa197001fa89700bf
:1020f000afa89700160407003fa99700cfa9970043
:10210000130407000c01be0011040700b30307000d
:102110000002be000203be006000b800f2ff2f0004
:10212000f3ff2f0000006200818062000201630063
:1021300083816300f0979f00819f9f00929f9f0083
:10214000a39f9f007f9097008f9897001f999700fb
:10215000af999700c40307000005be000c01be0044
:10216000f20307003fa99700cfa99700ef030700ec
:102170001fa99700afa99700ec0307000001be005c
:102180005fa09700efa09700e80307000006be00dd
:102190006000b800f2ff2f00f3ff2f005f9a970056
:1021a000ef9a97007f9b97008fa397000000620033
:1021b000818062000201630083816300aa0307003b
:1021c0000003be000001be000800be00f6af9f0085
:1021d00087b79f00d50307000a01be00c1040700ae
:1021e0000002be000c01be000800be0094b79f00b4
:1021f000a5b79f00bb0407000001be001fb29700f7
:10220000afb297000400be00d10307000004be0077
:102210000a01be007fab97008fb397000600be0097
:10222000b00407000005be0090af9f00a1af9f0063
:102230000001be000800be00c50307000006be0086
:10224000660307000203be000002be00f0ff2f007d
:10225000f1082400800f5100818f590026003400be
:102260000000200001f72b0002004000838048009e
:102270000400700085807000e00f5000e08f58006f
:1022800015003a00b2a32a00834b22000800be00ca
:10229000f6af9f0087b79f00ad0307000002be00a6
:1022a0000a01be000c00be0094b79f00a5b79f00b6
:1022b0009e0307000001be001fb29700afb2970057
:1022c0000400be00660307007fab97008fb3970042
:1022d0000000e0002b0034000200200003f827007b
:1022e0007fa097008fa897007e04070002002000bf
:1022f00003f827000d0137008701780003f0a100e3
:1023000006017800f0bf2c0001092400800f510065
:10231000818f59001b00340000402300f1f6230098
:10232000060040008780480004007000858070002f
:10233000e00f5000e08f58000c003a000a01be0088
:102340000c00be00f6af9f0087b79f007703070021
:102350000001be000800be003f0307007fab9700ee
:102360008fb397000000e00006003c006011b80049
:102370007fa097008fa897005a0407006011b8004b
:10238000ea0037008701780003f0a1000601780019
:102390006000b800b0af9f00c1af9f0000002000f8
:1023a00001fe2300800f5100818f59004900340045
:1023b0004498de00e03fb100040020000501200049
:1023c0000000e900030033008582d1000482d300bd
:1023d000fbff37000402430085824b0005067800ae
:1023e0008500780001f0a1004489de00cf89de007d
:1023f0000200be00f03fb1000180b10090af9f002d
:10240000a1af9f00f2ff2f00f30020009fa89700cc
:102410008100e900030033008381d1000281d300f1
:10242000fbff37000281ea008381ea0083806200bb
:10243000040061004f89de00820178000001be00c7
:102440006000b80094b79f00a5b79f00f6af9f004b
:1024500087b79f00040307000001be00ef0066007d
:102460001fb097000002be000540a000b4af9f005f
:10247000c5af9f009faa9700748012003faa9700e3
:10248000cfaa97000000e900030033008582d10045
:102490000482d300fbff3700b4af9f00c5af9f009d
:1024a0007fab97008fb39700e00f5300e08f5b0086
:1024b00004003d0060021200e0821a00b4af9f00e9
:1024c000c5af9f000a00be001803070090af9f0031
:1024d000a1af9f001fa99700afa997000800be00f9
:1024e0001b030700bd0207006022b800f6ff2f00a3
:1024f000f7ff2f0004026000858260000603610080
:10250000878361000400be000601be00d6020700fa
:102510000006be008221270013f32300f103070009
:102520000005be001fa99700afa997000c00be00d0
:10253000fe0207000001be000800be00fb0207000b
:102540008221270013f32300e60307000004be00e6
:1025500082302e0023102b000c00be00e103070088
:102560000001be000800be00f90207000006be0020
:102570000001be000a00be00f50207000004be0014
:102580000a01be00e90207000001be000c00be0007
:10259000e602070090af9f00a1af9f000801be00b8
:1025a0000800be00cf0307000005be00c2b42b0028
:1025b00013332300cb030700e2a02e00d35d2300da
:1025c000da0207000001be000a00be00c5030700d2
:1025d00052352b00a3882300dd0207000001be0056
:1025e0000a00be00bf03070012b6200063b3230039
:1025f000ce0207000001be000a00be00b9030700ba
:10260000b2aa2a00a3e22300d10207000001be0003
:102610000a00be00b30307000001be000800be00b0
:10262000c20207000005be000001be000800be0097
:10263000ac0307000006be000200200003002400d7
:102640000a00be00b90207000001be000c00be0077
:1026500057f907000005be001fa99700afa9970012
:102660000800be009f0307000001be001fa89700de
:10267000afa89700b60207000001be000a00be0026
:10268000aa0207000801be00a80207000001be0060
:102690000000200001f82300a40207000004be008f
:1026a0004e0207003fab9700cfab9700c432dd006e
:1026b00004002000040241008582490044abde0092
:1026c000cfabde00e00f5300e08f5b0004003c0066
:1026d0003fa997000800be00260007001000370041
:1026e0004fabde00860378000403be006022b80012
:1026f000f8ff2f00f9ff2f006055b80008046000b4
:10270000898460000a0561008b8561000800720001
:10271000898072000a0173008b81730052020700e6
:102720000001be007fa097008fa897006d030700ef
:102730000004be00080037000800200009f823004c
:10274000050037006044b800030037000c04be00e9
:10275000010037000204be000800be004f077800e9
:102760004f06be004f05be004f04be006f04b1000f
:1027700000000600889fbe008a9fbe000204780009
:10278000f93f2000890f54000d00340002002000a2
:1027900003f8270053030700f83fb100890f5400e6
:1027a000150034000200200003f827004d03070045
:1027b000f83fb100890f54000e003c000e003700b6
:1027c00029c02f00890f54000b003d006011b80094
:1027d00044030700983cb000890f540006003d00f8
:1027e0006011b8003f030700983cb000890f540007
:1027f00001003d0009047800f83fb000cfc4de00be
:10280000614db9006044b8000801be0035030700ff
:102810004f05be004f04be00000006002800fa006d
:10282000889fbe008a9fbe008c9fbe000004be0031
:10283000ea0107000203be000002be00c0b79f000d
:10284000d1b79f00e2b79f00f3b79f000602be001a
:102850000600200007ff2700878662000606780032
:10286000860f5600878f5e0007003a000801be0001
:102870000800be001b0307000001be000800be00e8
:1028800033020700310137004fb39700dfb39700e1
:10289000e00f5200e08f5a0013003c0085017800e1
:1028a00003f0a10004017800060171008781710026
:1028b000e00f5100e08f590025013200e00f520077
:1028c000e08f5a000800320010022000c0ea8800a1
:1028d0000801be000800be00140207000001be008f
:1028e000b3f807001901370044a8de00cfa8de00c6
:1028f000e00f5000e08f58002e003a00080037002b
:1029000075005000e0805800453cdd004b32de0091
:1029100004027400cb3ade00c533dd00060020005f
:10292000e00f5200e08f5a00f5ff32006011b8004e
:10293000040037000402420085824a006101410020
:10294000e08149000800200009012000858564001d
:1029500008057800e00f5500e08f5d00f5ff3200bc
:1029600061004000e0804800020050008380580071
:1029700008022000020454000605be000806780084
:102980000c06e900030033008b05d1000a85d30053
:10299000fbff37000402750085827500820678000f
:1029a0008d06e900030033000603430087834b00d4
:1029b000fbff3700f03fb1000180b100ef81620002
:1029c000040178000340a0000008a3000c003200be
:1029d000020141008381490008002000090028000d
:1029e00087826400080278004f2ade00050020007c
:1029f0000201420083814a000603430087834b00a3
:102a00008182d1000082d30084af9f0095af9f00e8
:102a100002014100838149000800200009002800cc
:102a200087806400080078004f08de000100200065
:102a300002014000838148000600430087804b006c
:102a40006c01200006002000070220006044b8004e
:102a50006022b80088bf9f0099bf9f00eca79f002d
:102a60000405430085854b00820f5500838f5d0070
:102a70000a003c000a0243008b824b000a0151000d
:102a80008b8159000fbe97009fbe97000c06430034
:102a90008d864b008cbf9f009dbf9f0002044100ac
:102aa00083844900c8b79f00d9b79f000a0020005f
:102ab0000b00280081846500b9b79f00aab79f006a
:102ac0002fb19700bfb197004f19de00030020001f
:102ad000e2af9f00f3af9f004fb49700dfb49700c1
:102ae00008014100898149000000400081804800c0
:102af0008703d1000683d300efa697008d06e90077
:102b0000eda79f00d6ff3a000fbc97009fbc97002f
:102b10006033b800a6b79f00b7b79f00cab79f0041
:102b2000dbb79f000c022000e8a79f00f9a79f00d9
:102b3000e6af9f00f7af9f004fb59700dfb5970056
:102b40002fb39700bfb397000a0443008b844b0058
:102b5000820f5200838f5a000400350034003a007f
:102b6000800f5400818f5c0030003e004fb597000d
:102b7000dfb597000805450089854d00aab79f007d
:102b8000bbb79f000a0020000b00280009836500e6
:102b900096b79f008ab79f000fb397009fb3970027
:102ba0008a0f53008b8f5b000c003a00bfb3970075
:102bb00087836500d7af9f00c6af9f004fad9700da
:102bc000dfad9700e00f5500e08f5d0003003a0095
:102bd00061034200e0834a00010037000403be00a5
:102be0000401510085815900880f5000898f5800d9
:102bf0000200310061015100e081590008005000dd
:102c0000898058006faa9700ffaa97004fb49700d9
:102c1000dfb497000402440085824c00e4af9f00bb
:102c2000f5af9f000602be00010037000401be00a0
:102c300002014100838149000600200007002800ae
:102c400081846300b9af9f0006057800aaaf9f009a
:102c50002fac9700bfac97004f4bde000700200061
:102c60000201430083814b00000040008180480046
:102c70004fb59700dfb597008b05d1000a85d300cb
:102c8000cab79f00dbb79f000c06e900aaff3a0015
:102c90006fa49700ffa497006fab9700ffab97005e
:102ca0000001710081817100e00f5100e08f590037
:102cb0000b003200e10f4300e08f4b0004003a00ac
:102cc00061044400e0844c006033b8000400370025
:102cd0006000b800610063000003430081834b0083
:102ce0008985d1000885d3008701d1000681d300f2
:102cf0000808a3000100320003f0a0000fae970007
:102d00009fae9700c460dd0000002000040020009a
:102d100005fe23000000420081804a0000024500b9
:102d200081824d004fabde00860378000403be00b5
:102d30006022b80004027100858271000603be00a3
:102d40000400be000601be00c70007000004be006c
:102d50000800be004f06be004f05be004f04be0077
:102d60000080fa00000006006022b8006033b8005e
:102d70000002be00f0ff2f00f1ff2f00f2ff2f0036
:102d8000f3ff2700000062008180620002016300ff
:102d90008381630000000600010037000201e900a2
:102da0000200e0000500320030427800b1417800b6
:102db000834f5200f9ff3200010037000000050088
:102dc0000480fb008381fb0003005000000006002c
:102dd0008001780002003700b15978000201e90053
:102de0000200e000fcff3a0000000600889fbe00e1
:102df0008a9fbe00800478000200e0005b00320081
:102e000001407800814c780082814400f1f99f00f4
:102e1000e20f51005500360091449800a1449800fb
:102e2000e1f99f00d1f99f00e60f51004f003600f5
:102e3000b1449800c1f99f00e80f51004b003600e3
:102e40000905ea00630565000a8444000a0551008b
:102e5000c1ff2f00010565000080fb008000eb0032
:102e60001210200013102000aa000700008cbe00e2
:102e70000a01440060b99f0071b99f00e80f550036
:102e80003a0036002004980031049800400498006d
:102e90005104980020b99f0031b99f0040b99f00ac
:102ea00051b99f00f80f55003000360060049800bb
:102eb00071049800000c9800110c9800200c9800e8
:102ec000310c9800400c9800510c980020b19f00e4
:102ed00031b19f0040b19f0051b19f0060b19f0090
:102ee00071b19f0000b99f0011b99f006401640097
:102ef0007801410002044400020555006011b80049
:102f00000203be000002be000403be006022b8003f
:102f100000007200818072000201730083817300df
:102f200010003700009cbe000294be0040049800d0
:102f3000510498006204980073049800000c9800f3
:102f4000110c9800220c9800330c9800400c98004b
:102f5000510c9800620c9800730c98000a02b100a2
:102f60000802b000ff0f5500eeff3e000900780098
:102f70004f05be004f04be00000006008000780030
:102f8000040037003104e00002003a000000510064
:102f900000000600010178000108a300f9ff3a00d3
:102fa0008101780031017800f4ef2f000202420025
:102fb0000281ea00020162000408280004016100a5
:102fc000f7ff320083007800010178003104e0004f
:102fd000fdff3a0000005100000006008103780068
:102fe000cef607000001be006000b8000478a30020
:102ff00013003a006220e10015003e000d00390088
:103000008301d1000281d3008180d3008301d100ec
:103010000281d3008180d3008301d1000281d300db
:103020008180d3000538b000c42add00f300b2006f
:103030008381720007f0a70003f0a00000000600e3
:1030400083ff2700020020006110b900f9ff37005c
:1030500003ff2700f7ff3700140020004902370064
:10306000f4ff2f00470237001400fa00889fbe00cb
:103070008a9fbe008c9fbe000005be000206be00f7
:10308000680047000c90be000a90be00fd010700da
:103090006400e1001a00320016003e006100e10009
:1030a0001a0032006e049000fe0490000e0b900097
:1030b0009e0b90006011b8009e0590000b38b10087
:1030c000d501200082817100610164008703d10075
:1030d0000683d3008984d3000884d3008502e900e5
:1030e000f8ff3a0070f807000df0a70001f0a0000b
:1030f0001f02370001fc270000002000faff370004
:1031000001f8270000002000f7ff37006000b8003a
:10311000f5ff3700020ab900001bb9000200b80031
:1031200081004200810043000000060007f82700ec
:10313000078361000638e10004003a00f707200029
:10314000878361008703710001003a0003f0a20049
:10315000889fbe008a9fbe008c9fbe00470ade008b
:103160000480a100c71ade000580a1000700280026
:103170000785600087856100f70f20000720e100c8
:103180009e0032000728e1009c0032000106780012
:103190000400e000b4003200f707200087806000e0
:1031a0000170a0000500e000c0003200f707200019
:1031b000878161000370a000050652000f003a00ed
:1031c0000b50e1000b0032000308e10002003a005e
:1031d0000200e1007e0032000204500083845800a7
:1031e000040031000001fd008101fd008402fd00aa
:1031f0008a05fd006044b800210037000520e10089
:1032000005003d000001fd008101fd008402fd007c
:103210008a05fd00050652007a60e10005003500d0
:103220000170a1004722dd00848070008a80700058
:10323000630037006044b800ef02660007ff2f000c
:10324000070666000500e00006003400f083120067
:103250008714dd000511de00071bdd00060171008b
:103260008519de007060e100050035000904780072
:1032700082047800030178008001eb00700656009c
:103280000b50e10003003a00020040008380480038
:103290000400370060041400e0841c0002005800a1
:1032a000838058000188a300060032008100d1000d
:1032b0000080d3008984d3000884d3000402e8008e
:1032c000270037000178a30025003a000100e00044
:1032d000030032008186cf00698656000a0037005d
:1032e0008c0020000000e00004003a000900780093
:1032f000880478000004eb00700252008086cf0042
:103300000d0646000c06e9007060e100060035007d
:103310008000780009007800880478000004eb0041
:1033200070065600700252000c00e0000c003400e1
:103330008c08dd00f00316000703de0086807000b5
:103340000c00dd00074bde00060070008c4cdd0039
:103350000743de00868474000c44dd000c0252003a
:103360006120e100200035006101600007002800b5
:1033700087816400f7ff27008783640007037400d8
:103380000300e000060032008203730004003200f4
:103390000000e800e08048000188a3000e003a0029
:1033a000f70f20000720e1004a003d000170a10056
:1033b0004722dd00810072008a8070000000be009c
:1033c0004f06be004f05be004f04be0000000600c1
:1033d0006000b800faff37008100d1000080d30000
:1033e0000402e800eeff3700040178008901740050
:1033f000c20007008a807000f1ff3700cbf607009b
:10340000070278000001fd008101fd00c7f60700fa
:1034100087027800850372000778a3000400320059
:103420000001fd008101fd000d010700e4ff3700f0
:10343000850362000768a300080032000b50e1001a
:1034400003003200f0ff2f00f1ff2700dcff370000
:103450000001fd008101fd00d9ff37000468a300d1
:10346000d7ff3200faff3700f8ff2700888360009b
:103470000b003a000000e00009003a0083036400fa
:1034800082837300020032000200be00ccff3700ce
:103490000b50e100ceff3a000200be00c8ff37002b
:1034a00014002000810064003eff3700f8ff270071
:1034b0008883610004003a000200e00002003a0044
:1034c0008c007800beff37001500200083016400e7
:1034d00039ff370001f82700000020008100750047
:1034e000b7ff370003836800070028000703630065
:1034f000470ade000480a100c71ade000580a10093
:10350000f70f20000720e100420032000728e10009
:1035100040003200889fbe008a9fbe008c1f78004a
:10352000f107b200f307b2000400e00064003200cb
:103530000170a0000500e000680032000370a000e8
:1035400085054200eb07b1000204b8000302b80091
:103550008484440060854a00020ab80084844400e0
:103560000a854a00030ab800040545000400330038
:103570000804d0008984d2000a85d2008b05e900b6
:103580006158e1003d003500021020000901610092
:103590000308200089816100f70720008783640009
:1035a00008867300c84cde00c853dd0087847400b1
:1035b0004855de000300e00006003200820376007a
:1035c000040032008904e80060054d000a88a30069
:1035d0000c003a00f70f20000758e10044003d00be
:1035e0000a70a100c75ddd000a8575008a007300be
:1035f000090078004f0678004f05be004f04be005a
:10360000000006000a05d1008984d3008b05e8007c
:10361000f0ff3700881f78000604780043f60700a3
:10362000070278000001fd008101fd003ff6070060
:1036300087027800850372000778a3000500320036
:103640000001fd008101fd00850007004f047800a6
:1036500000000600850372000748a3000300320043
:10366000f0ff2f00f1ff2700f8ff370000002000d7
:1036700001f8270088807000f4ff37008801780087
:103680004848dd00808171004848de00c850dd00f8
:1036900001007000c850de00060478000b017800bd
:1036a0001600070088807000d2ff37000500e00098
:1036b00005003200170020003a0007009dff370088
:1036c00081037000f9ff3a00860078004f06780009
:1036d0004f05be004f04be000000050083037100cb
:1036e000f9ff3200270020002e00070094ff37006a
:1036f00001f8270086807000f4ff37000100e00029
:1037000026003200610111007810e10023003c0026
:103710006022b8007010e1000400350080027800db
:10372000010078008000eb00700151000200e00011
:103730000900340070031100062add00822ade0031
:103740008603dd00878272000200de00860bdd004a
:10375000070070008208de0084817100f4ff2700fa
:103760000482620084817100040028008482620067
:103770006102600005f0a6000000060004827100ee
:10378000070032000000e800e0804800000006006a
:103790000002be006000b800efff37006000b80014
:1037a00000000600889fbe000004eb006138e100c5
:1037b00016003a000100e00008003a00c800de00f0
:1037c0004800dd00880020000100e00003003a000e
:1037d000c800de004800dd00680444008184cf009a
:1037e000e9845400060034008908dd00f0831400e9
:1037f0008703de00878070000900dd0009044400b3
:10380000610214004f04be00000006000300e00047
:1038100008003a00c811de004811dd0088002000d1
:103820000300e00003003a00c811de004811dd008b
:10383000680444008384cf00e98454000600340007
:103840008919dd00f08314008713de008781710081
:103850000911dd0009044400e1021400e9ff37000a
:103860000478a300040032000578a30003003200ae
:103870000168a30001003a000200be000160a00040
:1038800000000600800078005002be005003be0019
:103890004439de00f700b200f37f2000030161002d
:1038a000090032000218e10016003a00850172009a
:1038b00083017300838173000008200015003a0023
:1038c000400020001300370085017200830173005f
:1038d0008381730005003a0004a8be0006a8be005c
:1038e000100020000b0037000201e9000402420032
:1038f00085824a0006034b0087834b000748a300dc
:10390000f9ff32000740a00004a8be0006a8be00d0
:10391000200020008000980092009800000006001f
:10392000680447000294be000094be00fc044700f7
:103930008694be008494be0009007800d1ff070081
:1039400008007800cfff070099007800814f7000d1
:103950000b003b000800be002d0007004f00b10027
:1039600003003700f3ff2700f2ff2f006110b900ba
:103970004f06be004f05be004f04be000080fa0097
:1039800000000600889fbe008a9fbe00841f78004a
:10399000170007004f00780011003300f0ff2f00e0
:1039a000838f6c0006003b00040565000a00a70039
:1039b0000800370009f0a6001000200008003700ba
:1039c000820f5400838f5c00030039001000200038
:1039d00001003e000000200009f0a7000000ea00fe
:1039e0004f05be004f04be000000e00000000600ce
:1039f0000004be0049f407000003be000405be0039
:103a00000200be0045f40700844f75000000060068
:103a1000e48240001078a3000700320064024000f6
:103a20001178a3003400be001401be00040032006f
:103a30000330a700000006003500be001501be00df
:083a40000330a00000000600a5
:020000040000fa
:103a4800686500006c6c00006f2000006672000062
:103a58006f6d000020540000617300006b200000af
:103a6800310a00000d000000686500006c6c000061
:103a78006f200000667200006f6d00002054000087
:103a8800617300006b200000320a00000d00000086
:103a980044420000473a00002062000075740000ac
:103aa800746f00006e2000000020000072650000a6
:103ab8006c65000061730000656400000a0d000079
:103ac800002000007072000065730000736500003c
:103ad800640a00000d0000000a0d0000004100000b
:103ae8004443000020720000656100006469000022
:103af8006e6700003a200000002000004c450000de
:103b080044320000204900006e740000656e000019
:103b180073690000747900003a200000006f00000b
:103b28006f700000730a00000d0000006d61000056
:103b3800696e0000207300006565000020630000c6
:103b48006c690000636b0000004500006e740000a3
:103b5800657200002061000020540000696d0000bb
:103b6800653a0000206d00006d3a00007373000094
:103b7800001b00005b3100003547000000430000d7
:103b88006f7500006e740000646f0000776e0000af
:103b9800205000006175000073650000640a000091
:103ba8000d000000436f0000756e00007464000093
:103bb8006f7700006e2000005265000073750000ea
:103bc8006d650000640a00000d0000006d610000d2
:103bd800696e00002073000065650000204c00003d
:103be8004f4e000047000000436f0000756e000054
:103bf800746400006f7700006e20000041620000ce
:103c08006f72000074650000640a00000d00000077
:103c18006d610000696e000020730000656500009a
:103c2800206300006f6d0000626f0000002b000031
:103c38000079000061790000206300006f750000c2
:103c48006e740000210a00000d0000006f6f000074
:103c5800707300002c200000746900006d6500007e
:103c6800206e00006f740000207200006561000083
:103c780064790000210a00000d0000006d61000059
:103c8800696e00002073000065650000204c00008c
:103c98004f4e000047200000636f00006d62000077
:103ca8006f000000436f0000756e00007464000030
:103cb8006f7700006e200000436f00006d700000f9
:103cc8006c650000746500000a0d000000500000db
:103cd800726500007373000020500000423100003c
:103ce800207400006f200000626500006769000012
:103cf8006e2100000a0d0000001b00005b3100006f
:103d08004300000063680000617200002062000048
:103d18002077000061730000206500006e740000c9
:103d280065720000656400000a0d00000063000071
:103d380068610000722000006920000077610000bf
:103d480073200000656e0000746500007265000055
:103d5800640a00000d000000427500007474000041
:103d68006f6e000020540000617300006b000000bb
:103d78004d610000696e000020530000746100006e
:103d880074650000004300006f7500006e74000049
:103d9800646f0000776e000020540000617300001b
:103da8006b00000044690000737000006c61000043
:103db8007920000054610000736b0000004400008b
:103dc800656200006f7500006e63000065200000ea
:103dd800546900006d65000072000000426c00002c
:103de800696e00006b200000546900006d650000da
:103df80072000000416c000074650000726e0000e3
:103e080061740000696e000067200000426c0000c9
:103e1800696e00006b200000546900006d650000a9
:103e280072000000456e0000642000005469000024
:103e38006d650000720000001111000022220000d0
:103e48003333000044440000555500006666000006
:103e5800777700008888000099990000aaaa0000d6
:103e6800bbbb0000cccc0000dddd0000eeee0000a6
:103e7800cecd0000acab00000300000049440000b8
:103e88004c45000000a50000a5a50000a5a5000060
:103e9800a5a50000a5a50000a5a50000a5a50000f2
:103ea800a5a50000a5a50000a5a50000a500000087
:103eb8000a7400006f6f0000206c00006f6e000035
:103ec800670a00000d000000546d00007220000019
:083ed8005376000063000000b6
:020000040000fa
:103ee0000e00fa001007980021079800320798008a
:103ef000430798005407980065079800a002200027
:103f000005260700000f78001e0078000000e00082
:103f100012003200a20220008000eb001e00780098
:103f2000b2fb07003e00900000004000fa250700a9
:103f3000800078001e007800410898001e0078007c
:103f4000400890000000e00004003a001e007800e5
:103f50002a2607000000eb00000f78001e00780002
:103f60000000e000090032008003eb001e0378002f
:103f7000ee0290005e029000ce0190003e019000a3
:103f8000ae0090001e0090001f0007001e00780089
:103f90000080fa00000006001000fa0020079800d8
:103fa000310798004207980053079800640798006b
:103fb00075079800fe0290006e029000de019000ee
:103fc0004e019000be0090002e009000c4ff07003c
:103fd000100798001e0090000000e000050032006d
:103fe0001e0090006d00070010002000000f7800f8
:103ff000020037000080eb00000f78001e00780000
:104000000080fa00000006001400fa002007980063
:1040100031079800420798005307980064079800fa
:1040200075079800060f9800170f98004e00900033
:1040300000004000800078000e08900040089000ca
:1040400001017800510a200068fb07000e0890006b
:10405000c0089000110798001e0090000000e800c2
:104060000000a100100798000e089000c008900002
:104070004e0090000000e9000000400080804000f9
:104080000e089000710898003e0090000000e000cb
:10409000180032000000eb00000f78000d00370020
:1040a0003e0090001e004000904078000e089000f6
:1040b0001e0040007a004000014878003e00900059
:1040c0001e004000104078000004e00005003200af
:1040d0001e0fe8001e007800e30f5000f0ff3600ce
:1040e00001003700000000000e0890008040eb0047
:1040f000515898006e009000e30f50000200360007
:1041000030002000600798000e089000ee0090003c
:10411000310898000e089000ee0090000110980001
:104120000e0890000080e800ac2407000e08900004
:104130006c004000a92407000e0890008e08900033
:10414000410098006e009000e40010000e089000fe
:10415000610098000e0890008e08900011089800e9
:104160005e019000ae0090001e009000eb2307005f
:10417000800078000e089000010878007e00900012
:104180000000e000030032007e0090008e089000e6
:10419000010878000080fa00000006000400fa0020
:1041a0001007980059240700a04180000000e80093
:1041b000a0418800704180000000e00007003a0044
:1041c0009e00900071418800a0418000e10f5000e6
:1041d0000d003a00c50607000b003700d0418000f3
:1041e0000000e00008003a0070418000b008900034
:1041f0001e00900030089000808f500002003e00aa
:104200009e00900071418800104280000000e8008c
:10421000104288001e009000b0089000c04180004d
:10422000808f5000030036001e0090003008900080
:10423000c04188001e009000300890006a00b9005c
:104240008000780080c7210000804000900090002e
:10425000010f78001e0090009e0078002100980059
:104260001e007800a00090001e0090003100980011
:104270001e007800200090009e0090008180e800e1
:10428000110098001e0090008080e8001e00780059
:10429000210098001e009000300890006a00b900cc
:1042a0008000780080c72100808040001e009000c0
:1042b000510098001e009000300890006a00b9007c
:1042c0008000780080c72100008140001e0090001f
:1042d000300890006a00b9008000780080c7210093
:1042e00000804000100078000000e800000978001d
:1042f00013240700d04180000000e00009003200d4
:1043000070418000b00890001e00900030089000be
:10431000808f5000030031002c6d0200000000006f
:10432000000000000080fa00000006000c00fa0007
:1043300040079800510798000000eb00000f78003c
:1043400075020700b1418000110798004e009000ef
:10435000900078005e0090000080400020079800e8
:104360004e009000900078001e009000808f50005a
:104370000c0036004e009000900078002e00900057
:10438000808f500012003600ae0090001e0090009a
:10439000808f50000e00360010002000000f7800c3
:1043a0000b0037004e009000900078002e00900027
:1043b000808f500004003e00ae0090001e00900070
:1043c000808f50000200360010002000000f78009f
:1043d0004e009000ae009000010878001e007800aa
:1043e0000000e00005003200ae0090001e009000ca
:1043f000008050008000eb00940b07004c02070087
:10440000300798003e0090000000e00003003a00f2
:104410002c6d020000000000000000001e0078006b
:104420000080fa00000006000400fa00100798005f
:104430000000eb00000f78001e0090000000e0007c
:1044400006003200340207008000eb001e009000de
:104450007e0b070036020700000f78001e00780070
:104460000000e00003003a002c6d02000000000094
:10447000000000000080fa00000006000e00fa00b4
:1044800050079800610798000000eb00000f7800cb
:104490006e009000e30f5000020036003000200054
:1044a00060079800992307005e0090000000e0007c
:1044b00002003a0070418000010037005e00900069
:1044c000100798001e0090008010900021079800af
:1044d000ae0090006e009000808f50007b00320094
:1044e000ee0090002e009000808f50000c003600ef
:1044f000704180009e009000808f50000e003200be
:1045000070418000b00890006e009000808f5000d5
:104510000900310010002000000f7800060037006d
:10452000704180009e009000808f500002003a0091
:1045300010002000000f78001e009000b0089000ce
:10454000310798001e009000801090001e0090001f
:1045500030089000808f5000050032001e0090004f
:10456000b00890006e009000808f50000300310072
:104570001e009000ee009000310898001e00900090
:10458000ee009000011098001e0090006000900066
:104590000000e000040035006e009000e400100010
:1045a0001e009000610098001e00900050019000d5
:1045b0003e0090006a00b9008000780080c72100aa
:1045c00000804000800f51003a003a001e00900029
:1045d0000080e800d82307001e009000b00890007b
:1045e000c0418000808f5000030036001e00900004
:1045f00030089000c04188001e00900030089000f4
:104600006a00b9008000780080c721000080400067
:1046100090009000410798001e009000ce0090008e
:10462000210098004e009000a00090001e00900015
:10463000310098004e009000200090009e009000f5
:104640008180e800110098001e0090008080e80042
:104650004e009000210098001e009000300890004d
:104660006a00b9008000780080c721008080400087
:104670001e009000510098001e009000300890002d
:104680006a00b9008000780080c7210000814000e6
:104690001e009000300890006a00b9008000780089
:1046a00080c7210000804000100078000000e80072
:1046b000000978001e0078000000e00003003200ce
:1046c0002c6d020000000000000000001c23070009
:1046d0000080fa00000006000800fa003007980089
:1046e0000a2307003e0090000000e00002003a00ac
:1046f00070418000010037003e00900010079800d4
:104700001e0090000080e8008b2307001e00900030
:10471000200890000000e000030032001e0090001e
:104720006c004000842307001e0090000080e80019
:1047300080007800e0cb21002f2307000000eb0071
:10474000000f78000c0037009e00900082022000cd
:104750001e00410061407800e14f500005003a0022
:104760001e0090001e0040008002b0008040eb0060
:10477000014878001e0fe8001e0078000000e000ed
:10478000f1ff3400ee220700d04180000000e0007d
:1047900003003200dd22070073050700e82207004e
:1047a000704180009e009000808f500010003a0001
:1047b000d04180000000e000040032002c6d0200b7
:1047c000000000000000000009003700f1e5800053
:1047d00021079800a0418000ae009000808f50001b
:1047e00002003a002e28ef000100370009030700fd
:1047f0000080fa00000006000800fa003007980068
:104800000000eb00000f7800be0090002107980028
:104810002e009000d0009000e0cb2100808f50004f
:104820001d003a002e009000a008900040cb21000f
:10483000808f5000180032002e0090002008900059
:104840000000e00014003a0010002000000f780083
:104850000000eb00100798000c003700ae0090003d
:104860001e0090008002b00061407800e14f5000cf
:1048700003003a000000eb00000f7800060037004c
:104880001e0090000000e800100798001e00900035
:104890000000e000f1ff34001e0078000080fa0004
:1048a000000006000600fa0020079800ae00900005
:1048b000010f7800704180009e007800808f5000ca
:1048c000490032001e0078000000e000460032007f
:1048d0008e2207001e007800c7ff07000000e000de
:1048e000400032001e80e800132307001e007800fd
:1048f000b0089000c0418000808f50000300360057
:104900001e00780030089000c04188001e0078002a
:10491000300890006a00b9008000780080c721004c
:104920000080400090009000110798001e00780061
:104930009e009000210098001e009000a0009000b2
:104940001e007800310098001e00900020009000aa
:104950009e80e800110098009e80e8001e009000f4
:10496000210098001e007800300890006a00b9000d
:104970008000780080c72100808040001e00780001
:10498000510098001e007800300890006a00b900bd
:104990008000780080c72100008140001e00780060
:1049a000300890006a00b9008000780080c72100bc
:1049b00000804000100078000000e8000009780046
:1049c00070418000b00890001e0078003008900010
:1049d000808f5000030031002c6d020000000000a9
:1049e00000000000562207000080fa0000000600c8
:1049f0000a00fa00400798000000eb00000f780062
:104a0000ce009000110798000000eb0020079800ee
:104a10001e00900078ff07000000e0004d0032000b
:104a2000404280000000e00045003a001e00900077
:104a3000b00890007041800030089000808f5000d6
:104a40000400360010002000000f78001000200045
:104a5000f04188001e0090000080e800b6220700a8
:104a60001e009000b0089000c0418000808f500070
:104a7000030036001e00900030089000c0418800fe
:104a80001e009000300890006a00b9008000780095
:104a900080c72100008040009000900031079800fe
:104aa0001e009000be009000210098003e00900083
:104ab000a00090001e009000310098003e00900081
:104ac000200090009e0090008180e8001100980076
:104ad0001e0090008080e8003e00900021009800b9
:104ae0001e009000300890006a00b9008000780035
:104af00080c72100808040001e0090005100980077
:104b00001e009000300890006a00b9008000780014
:104b100080c72100008140001e00900030089000f6
:104b20006a00b9008000780080c721000080400042
:104b3000100078000000e800000978000500370048
:104b40001e0090006c0040008000780040cb2100e7
:104b5000292207001e0078000080fa0000000600ed
:104b60000c00fa0010002000000f78006000b80070
:104b700040079800510798000000eb0030079800ac
:104b80000000eb00200798001100370021f42900f5
:104b90002e0090000080400090407800680147009f
:104ba0002e0090000000410001487800e800470016
:104bb0002e00900000804000104078000004e000cb
:104bc000070032002e0090000000e8002007980047
:104bd0002e009000e20f5000ecff3600010037007d
:104be00000000000e80047002e0090000080400018
:104bf0008040eb00014878000000eb0010079800af
:104c00001600370000e62200300798001e009000d2
:104c10000000400080007800608420008080400018
:104c200068004700810278000002eb008001eb0081
:104c300032072000800078003e009000d6fc07007c
:104c4000000f78001e007800e10f500007003a00c6
:104c50001e0090000000e800100798001e00900061
:104c60000000e000e7ff3400010037000000000012
:104c70001e0078000080fa00000006000200fa0022
:104c8000b7ff0700000f78001e007800e10f50000a
:104c900002003a009a1a0700000f78001e00780000
:104ca000e10f50000d003a0011028000f0f12f00da
:104cb000008060000050a00010028800000000008a
:104cc000000000000080eb0020428800100020005f
:104cd000d04188003628ef005d21070000fa8400eb
:104ce0000080fa00000006000000fa0011028000b7
:104cf000f0f12f00008060000050a000100288003a
:104d000000000000000000003a28ef0068210700c2
:104d10000080fa00000006000000fa004042800017
:104d20000000e800404288000080fa000000060011
:104d30000e00fa000000eb00000f78000000eb000e
:104d400010079800712107000000eb003007980061
:104d5000404280000000e90040428800404280005c
:104d60000000e000ae003a00a04180000000e0003a
:104d7000ab00320081003700d0e5800030009000a9
:104d8000000f78001e007800a008900041079800ee
:104d90001e007800700090009e007800810890004e
:104da000210098001e007800000890009e00780006
:104db000f1009000110098004e00900090009000cb
:104dc0001e0178006c004100808f500004003a0002
:104dd0001e007800800890004e009000110098009e
:104de0001e0078008000eb00210898004e00900023
:104df000100078008000e9004e0090000108780063
:104e00001e007800d0009000510798001e00780026
:104e1000200090009e007800b100900021009800d2
:104e20001e007800300090009e007800a1009000e5
:104e3000110098005e009000900090001e80e80035
:104e4000808f500004003a001e007800b0009000ef
:104e50005e009000110098001e0078008000eb00ba
:104e6000510098005e009000100078008000e9007a
:104e70005e009000010878001e007800b0089000e5
:104e8000c0418000808f5000030036001e00780073
:104e900030089000c04188001e0078003008900063
:104ea0006a00b9008000780080c7210000804000bf
:104eb00010019000620798001e007800ee0090003c
:104ec000210098006e009000a00090001e00780065
:104ed000310098006e009000200090009e80e80055
:104ee000110098009e80e8006e009000210098005c
:104ef0001e007800300890006a00b9008000780039
:104f000080c72100808040001e007800510098007a
:104f10001e007800300890006a00b9008000780018
:104f200080c72100008140001e00780030089000fa
:104f30006a00b9008000780080c72100008040002e
:104f4000100078000000e800000978001e007800da
:104f5000b00890007041800030089000808f5000b1
:104f6000060036003e00900080004000e0832000f4
:104f7000008040001100200001087800a0e58000ba
:104f80000000e0007cff3a001e0078000000e00016
:104f90000100320074030700e241800022079800fc
:104fa0002e0090000000e000100032004d000700cd
:104fb0000000e000060032003e009000800040004b
:104fc000e0832000008040001100200001087800ec
:104fd0002e0090000000e900200798002e009000ad
:104fe0000000e000f1ff3a003c28ef003e00900096
:104ff00080004000e0832000008040001000780026
:105000000000e000060032001000200010079800a9
:10501000704180002c6d02000000000000000000c4
:10502000c72007001e0090000080fa000000060064
:105030000200fa00b1418000010f78001e007800e4
:105040000080fa00000006000400fa000000eb00f7
:10505000000f7800b1418000110798001e009000f9
:105060000080fa00000006000000fa00a041800065
:105070000080fa00000006000400fa001007980003
:105080001e0090000000e00002003a007041800025
:10509000010037001e009000000f78009e0078008d
:1050a0007a8040000080fa00000006000400fa0048
:1050b0001007980018ff070094200700e1418000c6
:1050c0001e00900000804000e04188009c20070006
:1050d00017ff0700000f78001e0078000080fa001c
:1050e000000006001000fa000000eb00000f78003e
:1050f000404280000000e000c0003a00b041800063
:105100000000e800100798009e009000b141880060
:105110001e0090000000e0000a003a00814180007b
:10512000210798009041800080418800ae009000e7
:1051300091418800004280000000e80000428800a1
:1051400009030700204280009e009000808f5000dd
:105150009900390001003700000000008041800004
:10516000100078000000e00003003a000080eb002f
:10517000204288009000370080418000300090007d
:1051800030009000300798003e00900090009000a2
:10519000410798009e0090004e009000808f5000c4
:1051a00003003100ce0090002142880082003700c9
:1051b0003e009000d0009000510798003e00900003
:1051c00020009000be009000b100900021009800e7
:1051d0003e00900030009000be009000a1009000c2
:1051e000110098005e009000900090003e0090003a
:1051f0000080e800808f500004003a003e009000dc
:10520000b00090005e009000110098003e009000f9
:105210008000eb00510098005e00900010007800c4
:105220008000e9005e009000010878003e009000d8
:10523000200890000000e0001f0032003e009000b7
:10524000a0089000610798003e0090007000900058
:10525000be00900081089000210098003e00900060
:1052600000089000be009000f1009000110098002e
:105270006e009000900090003e0090006c00400096
:10528000808f500004003a003e009000800890009b
:105290006e009000110098003e0090008000eb002e
:1052a000210898006e009000100078008000e9004e
:1052b0006e009000010878003e009000b008900059
:1052c000c0418000808f5000030036003e009000f7
:1052d00030089000c04188003e00900030089000e7
:1052e0006a00b9008000780080c72100008040007b
:1052f00090009000710798003e009000fe00900022
:10530000210098007e009000a00090003e009000d8
:10531000310098007e00900020009000be009000b8
:105320008180e800110098003e0090008080e80035
:105330007e009000210098003e0090003008900010
:105340006a00b9008000780080c72100808040009a
:105350003e009000510098003e0090003008900000
:105360006a00b9008000780080c7210000814000f9
:105370003e009000300890006a00b900800078007c
:1053800080c7210000804000100078000000e80085
:10539000000978003e009000b00890007041800045
:1053a00030089000808f50006bff36001000200006
:1053b000000f780069ff37007041800030089000ce
:1053c0006a00b9008000780080c72100008040009a
:1053d00010007800e10f500002003600100020009d
:1053e000000f7800f04180000000e000060032006d
:1053f00010002000000f780003003700e04180001b
:105400000000e800e04188001e0078000080fa00fb
:10541000000006000800fa00404280000000e000a2
:105420000300320010002000f041880041003700e6
:105430003e28ef007041800070089000100798002f
:105440001e0090007400500010079800704180000a
:10545000900078007041800070089000808f5000ac
:10546000060031004201200071f429001e00900066
:1054700049f607000000e00006003200704180009d
:105480007a0040002007980070418000ae00900034
:10549000d2070700c1418000010f780001003700ea
:1054a0001e0fe9001e0078006a00b9008000780035
:1054b00080c7210000804000100078000000e0005c
:1054c000f7ff32001e0078006a00b9008000780003
:1054d00080c7210000804000300798003e00900007
:1054e00010009000900090003e0090001100980085
:1054f0003e009000900090003e009000640040004c
:10550000808f500004003a003e009000b0009000f0
:105510003e009000110098003e00900010009000a6
:1055200030009000704188009e007800c1418800e2
:10553000704180000080fa00000006000400fa00bc
:10554000000f780011079800704180006c00400047
:10555000800078001e007800c51f070011002000a1
:105560001e009000390707000080fa0000000600c6
:105570000800fa00100798002107980032079800e9
:1055800070418000ae00900001f0a0006100980022
:105590001e00900090009000010f78007041800084
:1055a0009e00780071009800704180009e00780095
:1055b000a1009000010898001e00780020009000d3
:1055c00071418000ec804000110098007041800023
:1055d000ec0040001e00780021009800704180001f
:1055e0009e009000210898001e0090001000780096
:1055f0008000e8001e0090000108780011002000e3
:105600003e009000110707000080fa00000006002d
:105610000800fa0010079800210798003207980048
:105620001e00900090009000010f780070418000f3
:105630009e00780071009800704180009e00780004
:10564000a1009000010898001e0078002000900042
