:020000040000fa
:080000000001040000000000f3
:020000040000fa
:0400080040020000b2
:020000040000fa
:04000c0040020000ae
:020000040000fa
:0400100040020000aa
:020000040000fa
:0400140040020000a6
:020000040000fa
:0400180040020000a2
:020000040000fa
:04001c00400200009e
:020000040000fa
:04002000400200009a
:020000040000fa
:040024004002000096
:020000040000fa
:040028004002000092
:020000040000fa
:04002c00400200008e
:020000040000fa
:04003000400200008a
:020000040000fa
:040034004002000086
:020000040000fa
:040038004002000082
:020000040000fa
:04003c00400200007e
:020000040000fa
:04004000400200007a
:020000040000fa
:0400440004020000b2
:020000040000fa
:040048000c020000a6
:020000040000fa
:04004c00400200006e
:020000040000fa
:04005000400200006a
:020000040000fa
:040054004002000066
:020000040000fa
:040058004002000062
:020000040000fa
:04005c00400200005e
:020000040000fa
:04006000400200005a
:020000040000fa
:040064004002000056
:020000040000fa
:040068004002000052
:020000040000fa
:04006c00400200004e
:020000040000fa
:04007000400200004a
:020000040000fa
:040074003002000056
:020000040000fa
:040078004002000042
:020000040000fa
:04007c00400200003e
:020000040000fa
:04008000400200003a
:020000040000fa
:040084004002000036
:020000040000fa
:040088004002000032
:020000040000fa
:04008c00400200002e
:020000040000fa
:04009000400200002a
:020000040000fa
:040094004002000026
:020000040000fa
:040098004002000022
:020000040000fa
:04009c00400200001e
:020000040000fa
:0400a000400200001a
:020000040000fa
:0400a4004002000016
:020000040000fa
:0400a8004002000012
:020000040000fa
:0400ac00400200000e
:020000040000fa
:0400b000400200000a
:020000040000fa
:0400b4004002000006
:020000040000fa
:0400b8004002000002
:020000040000fa
:0400bc0040020000fe
:020000040000fa
:0400c00040020000fa
:020000040000fa
:0400c40040020000f6
:020000040000fa
:0400c80040020000f2
:020000040000fa
:0400cc0040020000ee
:020000040000fa
:0400d00040020000ea
:020000040000fa
:0400d40040020000e6
:020000040000fa
:0400d80040020000e2
:020000040000fa
:0400dc0040020000de
:020000040000fa
:0400e00040020000da
:020000040000fa
:0400e40040020000d6
:020000040000fa
:0400e80040020000d2
:020000040000fa
:0400ec0040020000ce
:020000040000fa
:0400f00040020000ca
:020000040000fa
:0400f40040020000c6
:020000040000fa
:0400f80040020000c2
:020000040000fa
:0400fc0040020000be
:020000040000fa
:0401000040020000b9
:020000040000fa
:0401040040020000b5
:020000040000fa
:0401080040020000b1
:020000040000fa
:04010c0040020000ad
:020000040000fa
:0401100040020000a9
:020000040000fa
:0401140040020000a5
:020000040000fa
:0401180040020000a1
:020000040000fa
:04011c00400200009d
:020000040000fa
:040120004002000099
:020000040000fa
:040124004002000095
:020000040000fa
:040128004002000091
:020000040000fa
:04012c00400200008d
:020000040000fa
:040130004002000089
:020000040000fa
:040134004002000085
:020000040000fa
:040138004002000081
:020000040000fa
:04013c00400200007d
:020000040000fa
:040140004002000079
:020000040000fa
:040144004002000075
:020000040000fa
:040148004002000071
:020000040000fa
:04014c00400200006d
:020000040000fa
:040150004002000069
:020000040000fa
:040154004002000065
:020000040000fa
:040158004002000061
:020000040000fa
:04015c00400200005d
:020000040000fa
:040160004002000059
:020000040000fa
:040164004002000055
:020000040000fa
:040168004002000051
:020000040000fa
:04016c00400200004d
:020000040000fa
:040170004002000049
:020000040000fa
:040174004002000045
:020000040000fa
:040178004002000041
:020000040000fa
:04017c00400200003d
:020000040000fa
:040180004002000039
:020000040000fa
:040184004002000035
:020000040000fa
:040188004002000031
:020000040000fa
:04018c00400200002d
:020000040000fa
:040190004002000029
:020000040000fa
:040194004002000025
:020000040000fa
:040198004002000021
:020000040000fa
:04019c00400200001d
:020000040000fa
:0401a0004002000019
:020000040000fa
:0401a4004002000015
:020000040000fa
:0401a8004002000011
:020000040000fa
:0401ac00400200000d
:020000040000fa
:0401b0004002000009
:020000040000fa
:0401b4004002000005
:020000040000fa
:0401b8004002000001
:020000040000fa
:0401bc0040020000fd
:020000040000fa
:0401c00040020000f9
:020000040000fa
:0401c40040020000f5
:020000040000fa
:0401c80040020000f1
:020000040000fa
:0401cc0040020000ed
:020000040000fa
:0401d00040020000e9
:020000040000fa
:0401d40040020000e5
:020000040000fa
:0401d80040020000e1
:020000040000fa
:0401dc0040020000dd
:020000040000fa
:0401e00040020000d9
:020000040000fa
:0401e40040020000d5
:020000040000fa
:0401e80040020000d1
:020000040000fa
:0401ec0040020000cd
:020000040000fa
:0401f00040020000c9
:020000040000fa
:0401f40040020000c5
:020000040000fa
:0401f80040020000c1
:020000040000fa
:0401fc0040020000bd
:020000040000fa
:100200004f8020000e7f24000e01880000000000b7
:10021000000020000000e000020032000001200089
:100220002002880014000700970007000000e0008b
:1002300003003a00c02b200001002000020037001c
:100240000000200001002000810f7000010032003a
:1002500014000700000020000000e000020032004f
:100260000000020000000000460202000000000042
:100270000040da000000fe004440a90020002000f9
:100280000000e00003003200100020009001880010
:100290004440a800000006008a1f78008b1f7800e9
:1002a00000000600a1028800800478000000eb0036
:1002b0001f003700e284440054a0b4009905ba003e
:1002c000e284440054a0b4009906ba00e2844400d9
:1002d00054a0b4000006eb00476fde00fd07b2003b
:1002e000ae018800636ce10003003a00eaff0700fa
:1002f0000000eb000e003700606ce10008003a00df
:10030000004deb000a05e800020039003420ec0043
:100310000af0a0008b05e900f9ff3e000400370059
:100320006168e100010032000086eb000b0007006d
:1003300019c7ba001905ba000e04e00003003a001c
:100340000a00e000dbff3a0000000600fe07b200f2
:10035000ae0288008a047800f5ff37000cd0a300b5
:10036000e20f4d001c00390089027800354dba00bb
:100370000a05e800020039003420ec000af0a00071
:100380008b05e9000f003200254dba000a05e80090
:10039000020039003420ec000af0a0008b05e900cf
:1003a000080032000c00e0000600320015cdba0053
:1003b0000a05e800020039003420ec000af0a00031
:1003c0008b05e9008984e80054a0b4000b00e0002c
:1003d000e2ff3a00000006009902ba00055d7800cd
:1003e0008b05e900f7ff3200c82ade00055d7800c2
:1003f0008b05e900f3ff32000c00e000f1ff320052
:1004000019ddba00eeff37000000fa0088e0a9000d
:100410000080fa0000400600809fbe000000fa0045
:100420008900a900d03380004500de0061406000f3
:100430000004a200614060000080fb0061006000d9
:100440004500dd00d13380000150a10001007000a3
:10045000d03388000080fa004f00be000040060044
:10046000801f78000000fa00100020000040880083
:100470008a60a9000080fa004f0078000040060062
:0c0480000040da000000fe000000050053
:020000040000fa
:10048c000000fa006a26ef007e26ef00a061a900aa
:10049c00110d80000003200001007000100d880079
:1004ac00a221a900a3a1a9006105800080ff2f0053
:1004bc00008060000010a000600588008900a90081
:1004cc009900a80040e82100f00c88009a21ef0068
:1004dc00a3e1a80076a6a90076c6a9007706a80015
:1004ec008706a8005fe6a8008306a8008106a8007e
:1004fc006026a9008a60a90081058000f0ff280011
:10050c0080806000000023000100700080058800de
:10051c009a60a8007ac6a9000028ef0001003700f5
:10052c00000000000140fe00004080000000e000e0
:10053c00fbff32000028ef00d03380004600de00c5
:10054c00614060000004a200614060000080fb007c
:10055c00610060004600dd00d13380000160a10025
:0c056c0001007000d0338800eeff370063
:020000040000fa
:1005780000080000040000008000000000000000e7
:020000040000fa
:020000040005f5
:045e0000ffffff00a1
:020000040000fa
:020000040005f5
:045e2000ffffff0081
:020000040000fa
:020000040005f5
:045e300008ffff0068
:020000040000fa
:020000040005f5
:045e380063ffff0005
:020000040000fa
:020000040005f5
:045e4000dfffff0081
:020000040000fa
:020000040005f5
:045e4800ffffff0059
:020000040000fa
:020000040005f5
:045e5000dfffff0071
:020000040000fa
:020000040005f5
:045e5800ffffff0049
:00000001FF
